:100000000C9487010C94AF010C94AF010C94AF01D8
:100010000C94AF010C94AF010C94AF010C94AF01A0
:100020000C94AF010C94C8070C94761E0C94051D1B
:100030000C94AF010C94AF010C94AF010C94AF0180
:100040000C94AF010C94AF010C94AF010C94AF0170
:100050000C94AF010C94AF010C94AF010C94EE130F
:100060000C94AF010C94FE170C9430180C94AF0153
:100070000C94AF010C94AF010C94AF010C94AF0140
:100080000C94AF010C94AF010C94AF010C94AF0130
:100090000C948B120C94AF010C94AF010C94AF0133
:1000A0000C94AF010C94AF010C94AF01131516150D
:1000B000051509150F153715371537151A151E159E
:1000C000221528152C1537153215000000020009DD
:1000D0000F0000030401000C00000408020110409E
:1000E000804010204080408008040201010210205E
:1000F00040801080102040400404040404030405E0
:1001000002020202040302020202060606060606B4
:10011000040402020204000000002300260029005B
:100120002C002F0000000000250028002B002E00CE
:10013000310000000000240027002A002D003000BC
:10014000080B000202020100090400000102020083
:100150000005240010010524010101042402060504
:100160002406000107058103100040090401000274
:100170000A00000007050202400000070583024054
:10018000000012010002EF0201408D0E01AB0001E0
:100190000102030112010002000000408D0E01ABBC
:1001A0000001010203014D6564696154656B204CD7
:1001B000616273004C696E6B497420536D61727497
:1001C00020373638382044756F00040309044E4147
:1001D0004E494E495459494E46CDCCCC3D0AD723C1
:1001E0003C17B7D13877CC2B329595E6241FB14F09
:1001F0000A000020410000C84200401C4620BCBE4E
:100200004CCA1B0E5AAEC59D7400407A10F35A00BA
:10021000A0724E18090010A5D4E80000E87648172F
:100220000000E40B54020000CA9A3B000000E1F514
:1002300005000080969800000040420F000000A0DA
:100240008601000000102700000000E80300000005
:10025000006400000000000A00000000000100002F
:100260000000002C76D888DC674F0823DFC1DFAEA2
:1002700059E1B1B796E5E3E453C63AE6519976966B
:10028000E8E6C28426EB898C9B62ED407C6FFCEF34
:10029000BC9C9F40F2BAA56FA5F490055A2AF75C62
:1002A000936B6CF9676DC11BFCE0E40D47FEF52014
:1002B000E6B500D0ED902E030094357705008084DC
:1002C0001E080000204E0A000000C80C33333333F0
:1002D0000F986E12831141EF8D2114893BE655165C
:1002E000CFFEE6DB18D1844B381BF77C1D901DA494
:1002F000BBE424203284725E228100C9F124ECA187
:10030000E53D2700B2039311C3166018CA031124F8
:100310001FBECFEFDAE0DEBFCDBF12E0A0E0B1E05C
:10032000E6E2FFE502C005900D92AA3CB107D9F7BD
:1003300025E0AAECB2E001C01D92AC37B207E1F7AC
:1003400011E0C6E8D1E004C02197FE010E94A52477
:10035000C238D107C9F70E94FC200C94862F0C9458
:10036000000083EA93E00C94BC0983EA93E00C94C8
:10037000A70966E783E193E00C94CA0B66E783E183
:1003800093E00C94CA0B83E193E00E94100E20E0EE
:1003900030E048EC52E40E941B22089583E193E090
:1003A0000C94930C83E193E00C941E0D60E08AE0C2
:1003B0000E94381560E08DE00C94381540E855E255
:1003C00060E070E081E794E00E94BD1626E040E026
:1003D00051EE60E070E082EC94E00E949E170E9473
:1003E000BE010E94B9010C94D60163E371E081E77C
:1003F00094E00E94DB1840915303509154036091A4
:1004000055037091560322E030E081E794E00E94AA
:10041000B81A65E471E081E794E00E94DB1840912E
:100420004F0350915003609151037091520322E0A9
:1004300030E081E794E00E94B81A65E571E081E759
:1004400094E00E94DB1840914B0350914C03609163
:100450004D0370914E0322E030E081E794E00E946A
:10046000B81A66E671E081E794E00E94DB184091DB
:100470005B0350915C0360915D0370915E0322E029
:1004800030E081E794E00E94B81A6AE771E081E702
:1004900094E00E94DB1840915703509158036091FB
:1004A000590370915A0322E030E081E794E00E9402
:1004B000B81A6CE871E081E794E00E94DB18609163
:1004C0001B0170911C014AE050E081E794E00E941A
:1004D0009F1968E971E081E794E00E94DB18609160
:1004E000190170911A014AE050E081E794E00C9400
:1004F0009F19CF93DF93CDB7DEB7C854D1090FB69C
:10050000F894DEBF0FBECDBF0E9438146093410344
:1005100070934203809343039093440340915303A9
:1005200050915403609155037091560322E0CE011F
:100530008D5B9F4F0E94712040914F03509150035B
:10054000609151037091520322E0CE01CD960E943A
:10055000712040914B0350914C0360914D03709179
:100560004E0322E0CE01C7960E94712060911D01CA
:1005700070911E014AE0CE01C1960E941820609140
:100580001B0170911C014AE0CE018B960E9418203D
:100590006091190170911A014AE0CE0185960E947E
:1005A000182040915B0350915C0360915D03709152
:1005B0005E0322E0CE014F960E94712040915703C6
:1005C000509158036091590370915A0322E0CE0173
:1005D00049960E94712040914103509142036091DD
:1005E0004303709144032AE0CE0143960E944420C5
:1005F00062EA71E0CE010D960E94831F63EA71E00A
:10060000CE0107960E94831FBE016D5E7F4FCE0113
:1006100007960E94CF206AEA71E00E94E220BE01A4
:100620006D5B7F4F0E94CF2061EB71E00E94E22062
:10063000BE01635C7F4F0E94CF2068EB71E00E9497
:10064000E220BE01695C7F4F0E94CF206FEB71E01A
:100650000E94E220BE016F5C7F4F0E94CF2066ECBB
:1006600071E00E94E220BE01655D7F4F0E94CF20B5
:100670006DEC71E00E94E220BE016B5D7F4F0E9435
:10068000CF2064ED71E00E94E220BE01615E7F4FE9
:100690000E94CF206BED71E00E94E220BE01675EF8
:1006A0007F4F0E94CF2064E772E00E94E220BC01ED
:1006B000CE0101960E94EC1FBE016F5F7F4FCE01FD
:1006C0000D960E94F51FCE0101960E94151FCE01C6
:1006D00007960E94151F62EE71E081E794E00E9488
:1006E000FA18BE01635F7F4F81E794E00E94E8182B
:1006F000BE01635F7F4F82EC94E00E94CD18CE0173
:100700000D960E94151FCE0143960E94151FCE0123
:1007100049960E94151FCE014F960E94151FCE01CB
:1007200085960E94151FCE018B960E94151FCE0143
:10073000C1960E94151FCE01C7960E94151FCE01BB
:10074000CD960E94151FCE018D5B9F4F0E94151FF5
:10075000C85BDF4F0FB6F894DEBF0FBECDBFDF9191
:10076000CF91089567EF71E085E493E00E94831FC5
:1007700083E193E00E94FC0920E04CE06BE084EF11
:1007800092E00E949B0820E046E065E085ED92E063
:100790000C949B0885ED92E00E94420884EF92E061
:1007A0000E94420885E493E00C94151F4F925F92DB
:1007B0006F927F929F92AF92BF92CF92DF92EF9211
:1007C000FF920F931F93CF93DF93CDB7DEB7A09720
:1007D0000FB6F894DEBF0FBECDBF6C017B018A015E
:1007E0000E9438142B013C0140E855E260E070E0C3
:1007F00084EF92E00E94C608912CA12CB12C0E949B
:100800003814DC01CB0184199509A609B709893B85
:100810009B40A105B10538F06CEF71E081E794E0F1
:100820000E94FA1827C084EF92E00E947107892B7A
:1008300031F384EF92E00E94E306823451F4911088
:100840000CC095012F5F3F4F8983992493945901E0
:10085000D6CF911002C09501FACF95012F5F3F4F7F
:10086000E1E0F0E0EC0FFD1FEA0DFB1D808320327C
:1008700031055CF384EF92E00E946E0984EF92E010
:100880000E945807FE013196CE014F9620E030E0DD
:100890004191240F311DE817F907D1F78F8D90E0B2
:1008A000982F882748A1840F911D28173907E1F454
:1008B0002B8530E0322F22278C85280F311DF60141
:1008C000318320838D8590E0982F88272E85820F95
:1008D000911DF701918380838F8590E0982F882761
:1008E0002889820F911D0EC063E172E081E794E0D8
:1008F0000E94FA188FEF9FEFF60191838083F70132
:1009000091838083F80191838083A0960FB6F89439
:10091000DEBF0FBECDBFDF91CF911F910F91FF9032
:10092000EF90DF90CF90BF90AF909F907F906F90AF
:100930005F904F9008952F923F924F925F926F92E7
:100940007F928F929F92AF92BF92CF92DF92EF925F
:10095000FF920F931F93CF93DF93CDB7DEB7E4974A
:100960000FB6F894DEBF0FBECDBF9FA38EA34B0181
:100970005A016901170140E855E260E070E085ED39
:1009800092E00E94C60820E030E040EA51E4F40121
:1009900060817181828193810E94AA2120E030E0F0
:1009A00040E251E40E94CE230E948D222B013C01A3
:1009B00020E030E040E251E4F50160817181828104
:1009C00093810E94CE230E948D226AA77BA78CA7C9
:1009D0009DA7F6010190F081E02DF9A7E8A7F801A5
:1009E0001081F8A51F1B81E191E00E947D286B0119
:1009F0007C0188E091E00E947D284B015C0120E0B1
:100A000030E044EB52E4C701B6010E94AA216EA770
:100A10007FA788AB99AB20E030E044E353E4C50105
:100A2000B4010E94AA214B015C016EA57FA588A993
:100A300099A90E948D226B01DD24C501B4010E9499
:100A40008D226AA37BA38CA39DA3F101F081FCAB53
:100A5000920186E0369527958A95E1F7EEA1FFA1F0
:100A600080818295807F822B8EA39AEC292E92E042
:100A7000392EF1018083440C440CFBA54F2AF1016F
:100A800041822AA5228388A599A523E0969587957A
:100A90002A95E1F79BAB8AAB8383812F90E09C0181
:100AA00043E0359527954A95E1F7E8A4E294EE0CEA
:100AB00050EEE5225E2C522A5482360163E0759492
:100AC00067946A95E1F775E0880F991F7A95E1F7C9
:100AD000682A6582B6010D2C000C880B990B0E94C8
:100AE000CB229B01AC016EA57FA588A999A90E9484
:100AF000A92120E030E048EC52E40E94CE230E947D
:100B00008D227727CB0195958795F5E0CC0CDD1CE0
:100B1000FA95E1F7782E7C28F10176828B01169503
:100B2000102F00271795079520E030E44CE156E49C
:100B30006EA57FA588A999A90E94CE230E94942220
:100B4000B4E6CB2ED12CE12CF12CA70196010E940A
:100B50006424660F771F062BFBA10F2BF10107837F
:100B60002AA1208720E030E44CE156E4C501B4011D
:100B70000E94CE230E949422A70196010E94642421
:100B80006B017C01EAA1FBA1BF0180E090E00E9423
:100B9000C9229B01AC01C501B4010E94A92120E03A
:100BA00030E048EC52E40E94CE230E948D22772749
:100BB000660F771F660F771FC60124E0959587950E
:100BC0002A95E1F7682BF101618734E0CC0CDD1C3C
:100BD0003A95E1F7FCA9CF2AF101C2861F92CF9284
:100BE0001F926F938AA19BA199279F938F931F9226
:100BF0000F931F927F921F926F921F925F928AA90A
:100C00009BA999279F938F938AA59BA599279F932B
:100C10008F931F924F921F92FEA1FF938DE392E05C
:100C20009F938F938E010F5F1F4F1F930F930E940F
:100C3000F728B80181E794E00E94FA18B80185ED21
:100C400092E00E94DB1885ED92E00E946E0985ED2E
:100C500092E00E9458070FB6F894DEBF0FBECDBFDA
:100C6000E4960FB6F894DEBF0FBECDBFDF91CF91F3
:100C70001F910F91FF90EF90DF90CF90BF90AF90BA
:100C80009F908F907F906F905F904F903F902F90AC
:100C90000895EF92FF920F931F930E943814AB01B7
:100CA000BC012AE030E081E794E00E94C319109271
:100CB0005B0310925C0310925D0310925E0310922E
:100CC0005703109258031092590310925A030E942E
:100CD000B10160935B0370935C0380935D03909319
:100CE0005E030E94B501609357037093580380938D
:100CF000590390935A031092530310925403109285
:100D000055031092560310924F0310925003109205
:100D10005103109252030E94CE01609353037093CB
:100D2000540380935503909356030E94D20160931D
:100D30004F0370935003809351039093520310928A
:100D40004B0310924C0310924D0310924E030E94DD
:100D5000C30160934B0370934C0380934D039093B6
:100D60004E0310921E0110921D0110921C01109250
:100D70001B0110921A011092190149E151E06BE137
:100D800071E08DE191E00E94D60386E0E82E81E0DB
:100D9000F82E09E111E02BE131E04FE453E063E587
:100DA00073E08FE191E00E949B040E94F5010E9494
:100DB000790268E873E180E090E01F910F91FF9065
:100DC000EF900C9469142091A1033091A20328178D
:100DD0003907B9F490915F0380916003981789F007
:100DE000E0915F03F0E0EF59FC4F808120915F03B9
:100DF00030E02F5F3F4F2F73332720935F0390E046
:100E000008958FEF9FEF08951F93CF93DF93DC0139
:100E10005C962D913C915D972115310539F481E067
:100E200090E013969C938E9312973DC05196ED914E
:100E3000FC91529750969C915097892F80951FB79F
:100E40005E964C915E9741FB772770F941FD609566
:100E5000F8944081772311F0492B01C04823408347
:100E6000E9012197F1F748E0508160FF02C0592B5A
:100E700001C058235083E9012197F1F7669541504D
:100E800099F7772321F090818923808303C08081A3
:100E9000982B90831FBF5C968D919C915D970197D5
:100EA000F1F721E030E0C901DF91CF911F91089562
:100EB00008952091A1033091A2032817390771F4F6
:100EC00090915F0380916003981741F0E0915F0378
:100ED000F0E0EF59FC4F808190E008958FEF9FEF95
:100EE00008952091A1033091A2032817390771F4C6
:100EF0008091600320915F0390E0805C9F4F821B94
:100F0000910960E470E00E945024089580E090E030
:100F10000895E091A103F091A203E817F90769F49D
:100F2000A389B4899C918589809589238C9310929B
:100F3000A2031092A10381E0089580E00895CF9369
:100F4000DF93EC018A8D9B8D892BF1F08091A103B9
:100F50009091A2038C179D07B9F0009711F00E94A1
:100F600089078E8D8E7F8E8F1092600310925F03A3
:100F7000D093A203C093A103EB89FC8990818D8952
:100F8000892B808381E001C080E0DF91CF910895BB
:100F90001F920F920FB60F9211242F933F934F93EE
:100FA0005F936F937F938F939F93AF93BF93EF93D1
:100FB000FF93E091A103F091A203309709F451C08F
:100FC000968DA685B785858591FF04C09C91892360
:100FD00029F447C09C91892309F043C0A389B489AF
:100FE0009C918589809589238C938689978901971F
:100FF000F1F7608D718DA685B785558538E020E0C5
:10100000CB010197F1F7822F90E095958795282FD6
:101010004C91452309F02068315091F7868D81FD70
:1010200020958091600390E001968F73992730910D
:101030005F03381749F0A0916003B0E0AF59BC4F8F
:101040002C938093600303C0868D8160868F828D90
:10105000938D0197F1F7A389B4899C918589892B98
:101060008C93FF91EF91BF91AF919F918F917F9161
:101070006F915F914F913F912F910F900FBE0F9005
:101080001F9018952AE732E0FC01318320830C94ED
:1010900089071F93CF93DF93EC01162F6E8D669512
:1010A000617081E06827812F0E94741561E0812FB3
:1010B0000E943815612F70E0FB01E652FF4FE4916A
:1010C000E88BFB01E850FF4FE491F0E0EE0FFF1FCB
:1010D000EC5DFE4F859194919A8B898BDF91CF9136
:1010E0001F9108951F93CF93DF93EC01162F60E0BB
:1010F000812F0E9438158E8D81FD04C061E0812F03
:101100000E9474151C87612F70E0FB01E652FF4FAF
:10111000E491ED87FB01E850FF4FE491F0E0EE0F22
:10112000FF1FEA5EFE4F859194919F878E87DF9126
:10113000CF911F9108951F93CF93DF93EC01162F4A
:101140001B821A8288EE93E0A0E0B0E08C839D833E
:10115000AE83BF838AE792E0998388831F8A1E8AC1
:10116000198E188E1B8E1A8E1D8E1C8E8E8D8E7F64
:1011700020FB81F98E8F642FCE010E944908612FD8
:10118000CE01DF91CF911F910C947208CF93DF9322
:10119000EC019A01AB011B8E1A8E198E188E1F8AD4
:1011A0001E8A60E874E88EE190E00E948624F901CE
:1011B0002430310518F0C901039702C081E090E0A6
:1011C0009D8F8C8F8C8598EF980F943048F062EF4C
:1011D000680F643028F066EE680F633008F071C065
:1011E000B901769567956431710518F063517109FD
:1011F00002C061E070E07F8B6E8B369720F0B90102
:101200006550710902C061E070E0798F688FB901A3
:10121000660F771F260F371F36952795369527952A
:101220002D30310518F02C50310902C021E030E09A
:101230003B8F2A8F943058F092EF980F943038F00B
:101240008A51833008F442C0A0E0B0E041C0A8E673
:10125000B0E0E8E6F0E0808181608C938C8598EFC7
:10126000980F943058F022EF280F243038F026EEF3
:10127000280F233018F020E030E002C02BE630E0E9
:101280003C8B2B8B943010F4845009C08E3069F065
:101290008F3069F0803169F0813169F0865191E0D9
:1012A00001C0990F8A95EAF707C098E005C092E05F
:1012B00003C094E001C091E09D8B8C8D9D8D0197C2
:1012C000F1F7CE01DF91CF910C949F07A8E6B0E033
:1012D000833008F4BECFE0E0F0E0BDCF0C94890786
:1012E000CF93DF93C62F60E470E084EA93E00E941E
:1012F00011116C2F84EA93E00E94BE1064E670E046
:1013000080E090E00E94691484EA93E00E949011CA
:1013100043E050E060E470E084EA93E00E948D11C5
:1013200084EA93E00E9462100397D4F384EA93E086
:101330000E946A10D82F80E0C82F84EA93E00E94B0
:101340006A108C0F9D1F8C7FDF91CF91089565EE01
:101350000E947009BC0180E090E00E94C92220E058
:1013600030E04AEF5AE30E94CE2320E030E040EC28
:1013700050E40E94A921089563EE0E947009BC0107
:1013800080E090E00E94C92222E538EB4FE25BE367
:101390000E94CE2326E636E64BE352E40E94A921C2
:1013A000089520916604222399F04FB7F894209174
:1013B0006604213059F42DB3209364043DB3209189
:1013C0006504209523232DBB4FBF02C040936404C6
:1013D0008CBD9DBD089580916604882361F09FB700
:1013E000F8942091660480916404213019F48DBB37
:1013F0009FBF08958FBF0895FC018FEF818782877B
:10140000838784870895CF92DF92EF92FF920F93A4
:101410001F93CF93DF93FC0124852F3F39F46EBDDA
:1014200000000DB407FEFDCF8EB52BC0D62F8C016A
:1014300087E0E82EF12CC0E0CC24C394D12CCC0F53
:1014400060E0F80184850E947415B6010E2C01C07D
:10145000660F0A94EAF76D23F80182850E947415DD
:1014600061E0F80184850E947415F80183850E946B
:10147000A415892B09F0C160F1E0EF1AF108F8F624
:101480008C2FDF91CF911F910F91FF90EF90DF9004
:10149000CF9008950F931F93CF93DF93EC01162FF6
:1014A000042F89858F3FB9F4688184EA93E00E9414
:1014B0000711612F84EA93E00E94BE10602F84EA36
:1014C00093E00E94BE1084EA93E0DF91CF911F91D8
:1014D0000F910C9490118C858F3F21F481E590E061
:1014E0000E94D10960E089850E947415612F6F7791
:1014F000CE010E94030A602FCE010E94030A61E020
:1015000089850E9474158C858F3F31F4DF91CF91CE
:101510001F910F910C94EB09DF91CF911F910F91C7
:1015200008951F93CF93DF93EC01162F89858F3F8A
:10153000D1F4688184EA93E00E940711612F84EA64
:1015400093E00E94BE1084EA93E00E94901141E073
:10155000688184EA93E00E948A1184EA93E00E9401
:101560006A10182F1EC08C858F3F21F481E590E012
:101570000E94D10960E089850E947415612F60681E
:10158000CE010E94030A60E0CE010E94030A182FD8
:1015900061E089850E9474158C858F3F11F40E944B
:1015A000EB09812FDF91CF911F9108950F931F9326
:1015B000CF93DF938C01C62FFC0181858F3F29F5E6
:1015C000608184EA93E00E9407116C2F84EA93E023
:1015D0000E94BE1084EA93E00E94901142E0F8015C
:1015E000608184EA93E00E948A1184EA93E00E9479
:1015F0006A10C82F84EA93E00E946A1020E030E06D
:101600003C2FE901C82BD92B2CC0F80184858F3FD2
:1016100021F481E590E00E94D10960E0F801818524
:101620000E9474156C2F6068C8010E94030A60E074
:10163000C8010E94030AC82F60E0C8010E94030A83
:101640002C2F30E0322F2227E901C82B61E0F8016E
:1016500081850E947415F80184858F3F11F40E94E2
:10166000EB09CE01DF91CF911F910F9108950E9458
:10167000D60A98278927982708951F93CF93DF9339
:10168000EC0168E80E94370B9E878D876AE8CE01DF
:101690000E94370B988B8F876CE8CE010E94370B26
:1016A0009A8B898B6EE8CE010E94370B9C8B8B8BBB
:1016B00060E9CE010E94370B9E8B8D8B62E9CE01D3
:1016C0000E94370B988F8F8B64E9CE010E94370BF5
:1016D0009A8F898F66E9CE010E94370B9C8F8B8F82
:1016E00068E9CE010E94370B9E8F8D8F6AE9CE018B
:1016F0000E94370B98A38F8F6CE9CE010E94370BA5
:101700009AA389A36EE9CE010E94370B9CA38BA3F9
:1017100061EACE010E94910A8DA361EECE010E9482
:10172000370B9FA38EA363EECE010E94910A88A778
:1017300064EECE010E94910A182F65EECE010E9440
:10174000910A282F2F7030E1139FC0011124822BA2
:101750009AA789A766EECE010E94910A182F65EE1E
:10176000CE010E94910A90E024E0959587952A95F4
:10177000E1F740E1149F90011124822B932B9CA749
:101780008BA767EECE010E94910A8DA7DF91CF91C2
:101790001F910895CF93DF93EC01688389858F3F74
:1017A00059F466E872E081E794E00E94FA1884EA4E
:1017B00093E00E94FD1018C061E00E94741561E082
:1017C00089850E9438158C858F3F19F40E94B813C3
:1017D0000BC061E00E94381561E08A850E943815CF
:1017E00060E08B850E94381560EDCE010E94910A61
:1017F000803679F4CE010E943D0B45E062EFCE01C8
:101800000E944A0A47EB64EFCE010E944A0A81E037
:1018100001C080E0DF91CF910895CF92DF92EF92E7
:10182000FF921F93CF93DF93EC01162F89858F3F93
:10183000E9F5688184EA93E00E940711612F84EA48
:1018400093E00E94BE1084EA93E00E94901143E06E
:10185000688184EA93E00E948A1184EA93E00E94FE
:101860006A106C01990FEE08FF08FE2CED2CDC2CA1
:10187000CC2484EA93E00E946A10AC01990F660BB5
:10188000770BC42AD52AE62AF72AFE2CED2CDC2C6D
:10189000CC2484EA93E00E946A10AC01990F660B95
:1018A000770BC42AD52AE62AF72A33C08C858F3FC6
:1018B00021F481E590E00E94D10960E089850E94D1
:1018C0007415612F6068CE010E94030A60E0CE01AA
:1018D0000E94030AC82ED12CE12CF12CFE2CED2CF9
:1018E000DC2CCC2460E0CE010E94030AC82AFE2C26
:1018F000ED2CDC2CCC2460E0CE010E94030AC82A27
:1019000061E089850E9474158C858F3F11F40E94D7
:10191000EB09C701B601DF91CF911F91FF90EF90C6
:10192000DF90CF9008958F929F92AF92BF92CF9207
:10193000DF92EF92FF920F931F93CF93DF93EC010F
:101940006AEF0E940D0C0D851E8520E030E0C72E49
:10195000D82EE92EFF24E7FCFA94C01AD10AE20A35
:10196000F30AAB01BC01E7E075956795579547957C
:10197000EA95D1F7000F111F221F331FDB01CA01A7
:10198000801B910BA20BB30B9C01AD01AF85B889F5
:101990000E94B6244B015C01ABE0B594A7949794E8
:1019A0008794AA95D1F7A7019601C701B6010E94B5
:1019B00040249B01AC01BCE0559547953795279590
:1019C000BA95D1F7A989BA890E94B624AB01BC01A6
:1019D0001EE075956795579547951A95D1F79A0129
:1019E000AB01280D391D4A1D5B1D2D833E834F839E
:1019F0005887A5E0B0E00E94AB24DC01CB01805801
:101A00009F4FAF4FBF4F692F7A2F8B2F992787FD9D
:101A10009A950E94CB2220E030E048EC52E40E94EC
:101A20001B22DF91CF911F910F91FF90EF90DF90DC
:101A3000CF90BF90AF909F908F9008954F925F92FC
:101A40006F927F928F929F92AF92BF92CF92DF92CE
:101A5000EF92FF92CF93DF93EC010E94930C6DEF16
:101A6000CE010E94D60A8D809E80AF80B8842CE281
:101A7000921A21E0A20AB1086C01E12CF12C3EE09F
:101A8000CC0CDD1CEE1CFF1C3A95D1F789A59AA55C
:101A9000092E000CAA0BBB0B44E1880F991FAA1F4B
:101AA000BB1F4A95D1F7C81AD90AEA0AFB0AABA5A7
:101AB000BCA5A50194010E94B624C61AD70AE80A5B
:101AC000F90A30E4D30EE11CF11C5FE0F594E794D1
:101AD000D794C7945A95D1F7ADA50A2E000CBB0B2D
:101AE000A50194010E94B6242B013C016AE0759483
:101AF0006794579447946A95D1F7A8A5B0E00E94DF
:101B0000AB24DC01CB017BE0B595A7959795879534
:101B10007A95D1F7BC01CD0170588F4F9F4FA3012B
:101B200092010E944024DC01CB01EAE0B595A79523
:101B300097958795EA95D1F79C01AD01405E5F4F7F
:101B4000AEA1BFA10E94B624DC01CB01905EAF4FD5
:101B5000BF4FBC01CD01FEE09595879577956795C0
:101B6000FA95D1F7A70196010E9440246B017C01F0
:101B7000AFE09595879577956795AA95D1F79B01E5
:101B8000AC010E9440249B01AC01B7E055954795FC
:101B900037952795BA95D1F7ADA1B0E00E94AB2457
:101BA000DC01CB01C4E0B595A79597958795CA95BB
:101BB000D1F7A7019601281B390B4A0B5B0BDA0101
:101BC000C90157FF03C080E090E0DC01813091053E
:101BD000A10539E1B30724F080E090E0A0E0B9E18D
:101BE000BC01CD012CE095958795779567952A9551
:101BF000D1F70E94CB2220E030E040E85AE30E9477
:101C0000CE23DF91CF91FF90EF90DF90CF90BF90E8
:101C1000AF909F908F907F906F905F904F900895BE
:101C20002F923F924F925F926F927F928F929F92EC
:101C3000AF92BF92CF92DF92EF92FF920F931F93DA
:101C4000CF93DF93CDB7DEB7A4970FB6F894DEBF7E
:101C50000FBECDBF9CA38BA30E94930C67EF8BA1FB
:101C60009CA10E940D0C6C8F7D8F8E8F9F8FEBA19E
:101C7000FCA185819681A781B0856C017D01FF0C57
:101C8000CC08DC2C76019C01AD016C2D7C2D8C2DBB
:101C90009C2D345F41405109610971098109910905
:101CA00029833A834B835C836D837E838F839887FC
:101CB00059016A017B018C010E94BE242C8B3D8B53
:101CC0004E8B5F8B688F798F8A8F9B8FABA1BCA166
:101CD0005D96BC91B8A3EBA1FCA1F68DF987ABA1F1
:101CE000BCA15B96BC91B9A3EBA1FCA1F48DFA87D2
:101CF000ABA1BCA15996BC91BAA3EBA1FCA1F28DFA
:101D0000FB87ABA1BCA15696BC9056975596AC905C
:101D10001B2D110F110BC12ED12EE12EF12E012FF3
:101D200029813A814B815C816D817E818F8198858B
:101D30000E94BE240CE00E94EE2519012A013B01FD
:101D40004C01EBA1FCA1B08CA7881B2D110F110B2E
:101D5000C12ED12EE12EF12E012F2C893D894E89E5
:101D60005F89688D798D8A8D9B8D0E94BE2408E0E5
:101D70000E94072651016201730184010E942526F9
:101D800070588F4F9F4FABA1BCA153962D903C90A4
:101D900054975101C12CD12CE12CF12C00E010E022
:101DA0000E94BE2401E20E9407262C873D874E87B1
:101DB0005F87688B798B8A8B9B8BA0E00E9437268C
:101DC00009F464C1A8A01985110F110BB984C12EA3
:101DD000D12EE12EF12E012F2C893D894E895F896C
:101DE000688D798D8A8D9B8D0E94BE2419012A01F0
:101DF0003B014C01A9A01A85110F110BBA84C12E09
:101E0000D12EE12EF12E012F29813A814B815C8167
:101E10006D817E818F8198850E94BE2401E10E94A0
:101E2000EE2559016A017B018C019101A201B301E8
:101E3000C4010E94252619012A013B014C014C8D49
:101E40005D8D6E8D7F8D84E075956795579547956F
:101E50008A95D1F780E090E0A0E1B0E0841B950B7B
:101E6000A60BB70B6C017D01FF0CCC08DC2C7601B6
:101E70009C01AD016C2D7C2D8C2D9C2D0FE10E94C1
:101E8000EE25F901B42FA52F6D837E838B839C8370
:101E90002AA19B85990F990B3B85492F592F692FB3
:101EA000792F892F03E20E94EE2559016A017B01F7
:101EB0008C019101A201B301C4010E9425265901A0
:101EC0006A017B018C019F014B2F5A2F6D817E810E
:101ED0008B819C810E942E264901542E652EB62F9F
:101EE000A72FF82FE92F03E00E94EE255401C52CFF
:101EF000D62CEB2EFA2E0F2F1E2F0E942E265901C4
:101F00006A017B01782E192F03E00E94EE25072D30
:101F10000E942E2603E00E94EE255401C52CD62CEB
:101F2000EB2EFA2E0F2F1E2F0E942E2602E00E946B
:101F3000EE250F2F0E942E2601E00E94EE250F2F86
:101F40000E942E26AC84BD84CE84DF84E888F98884
:101F50000A891B890E94192529833A834B835C8354
:101F60006D837E838F8398870DE00E940726922ED3
:101F7000832E742E652E562E472E382E292EEBA139
:101F8000FCA134A123A1932F990F990BA92CB82C54
:101F9000C72CD62CE52CF42C032D122D492F592FAC
:101FA000692F792F892F0E94BE240E94BE2409E147
:101FB0000E94072659016A017B018C0129813A811F
:101FC0004B815C816D817E818F8198850E94252661
:101FD00019012A013B014C01ABA1BCA192963C9195
:101FE000929791962C91932F990F990BA980BA8073
:101FF000CB80DC80ED80FE800F811885492F592F22
:10200000692F792F892F0E94BE2403E10E940726A1
:1020100059016A017B018C019101A201B301C40144
:102020000E94252608E00E940726522E632E742E59
:10203000852E962EF72FE82F492EABA1BCA19096A6
:102040003C9190975F962C91932F990F990B492F64
:10205000592F692F792F892F04E00E94EE2559010D
:102060006A017B018C01252D362D472D582D692DB8
:102070007F2F8E2F942D0E9425260E94C32220E0C0
:1020800030E040E85BE30E94CE2303C060E070E0F4
:10209000CB01A4960FB6F894DEBF0FBECDBFDF9183
:1020A000CF911F910F91FF90EF90DF90CF90BF9055
:1020B000AF909F908F907F906F905F904F903F90E8
:1020C0002F9008958091D40390E02091D503821B36
:1020D000910908959091D5038091D403981750F4F5
:1020E000E92FF0E0EA52FC4F208130E09F5F9093AF
:1020F000D50302C02FEF3FEFC9010895E091D5034A
:102100008091D403E81730F4F0E0EA52FC4F80816C
:1021100090E008958FEF9FEF08950895CF92DF929A
:10212000EF92FF920F931F93CF93DF937C01262FA3
:10213000972F8A018091B003882391F0C62FD72F63
:102140006E01C40ED51ECC15DD0571F06991D70165
:10215000ED91FC910190F081E02DC7010995F3CF3D
:10216000642F822F0E945312C801DF91CF911F91DB
:102170000F91FF90EF90DF90CF900895CF93DF9372
:102180001F92CDB7DEB769832091B0032223D1F02F
:102190002091B103203240F021E030E0FC01338394
:1021A000228380E090E015C08091B203E82FF0E038
:1021B000ED54FC4F998190838F5F8093B20380939D
:1021C000B10305C061E0CE0101960E94531281E087
:1021D00090E00F90DF91CF910895FC01138212825D
:1021E00088EE93E0A0E0B0E084839583A683B78374
:1021F0008FE892E09183808308951092D503109226
:10220000D4031092B2031092B1030C94971181E0A1
:102210008093B0036093D3031092B2031092B10382
:1022200008950C9407110F93062F21E04091B103FC
:1022300063EB73E08091D3030E94FD111092B2030F
:102240001092B1031092B0030F9108954F925F92D4
:102250006F927F92AF92BF92CF92EF92FF920F93C5
:102260001F93CF93DF935C01F62ED42F2801390101
:10227000EE2021F10E940711CE2DC43008F0C3E0FA
:10228000C150C0F0D501ED91FC91B8E0CB9FC001E9
:102290001124A301920104C05695479537952795BF
:1022A0008A95D2F7CA01B9010190F081E02DC501EC
:1022B0000995E6CF60E0C5010E9413114D2FD13280
:1022C00008F040E22C2D66ED73E08F2D0E94B511D1
:1022D0001092D5038093D403DF91CF911F910F917A
:1022E000FF90EF90CF90BF90AF907F906F905F90F6
:1022F0004F900895CF92EF920F931F93C22EE12C2F
:1023000000E010E098010E9426111F910F91EF90BC
:10231000CF90089521E00C947A1121E00C947A1169
:1023200061E00C94131184EA93E00C94ED10109288
:10233000630481E0809361041092600461E082E0B4
:102340000E94741561E083E00E947415E9EBF0E0EF
:1023500080818E7F808380818D7F808380E28093E7
:10236000B80085E48093BC000895413208F043C072
:10237000909163049111FCCF91E0909363042093BA
:1023800061042FEF2093F60310923B04240F209357
:102390003A049093620490916204880F892B809391
:1023A000620480916004813061F410926004809135
:1023B00062048093BB008091BC0083FDF8CF85EC64
:1023C00001C085EE8093BC00809163048130E1F30D
:1023D00080913B04841710F440913B042CE334E0DB
:1023E000FB01D9018A2F821B841718F48D918193E8
:1023F000F9CF842F089580E008950F93413208F0BB
:102400004AC0909163049111FCCF32E03093630491
:10241000009361043FEF3093F60310923B04409326
:102420003A04FB016CE374E0DB013A2F361B3417EE
:1024300018F431913D93F9CF109262043091620407
:10244000880F832B8093620480916004813061F453
:1024500010926004809162048093BB008091BC0064
:1024600083FDF8CF85EC01C085EE8093BC0022236C
:1024700021F0809163048230D1F38091F6038F3F85
:1024800079F08091F603803241F08091F603803339
:1024900031F094E005C091E003C092E001C093E008
:1024A000892F0F91089540911804262F30E0240FB2
:1024B000311D21323105DCF4209163042430C9F44C
:1024C000FC0180E090E0861758F4309118042191C7
:1024D000DC01A65EBB4FA30FB11D2C930196F3CF79
:1024E00080911804680F6093180480E0089581E0DB
:1024F000089582E0089585ED8093BC008091BC0032
:1025000084FDFCCF10926304089585EC8093BC0099
:102510001092630408951F920F920FB60F92112428
:102520002F933F934F935F936F937F938F939F93DB
:10253000AF93BF93EF93FF938091B900887F80366C
:1025400009F49EC078F5883209F45DC090F48031BA
:1025500009F456C038F4882309F4F5C0883009F42A
:102560004FC0F5C0883109F44EC0803209F45FC015
:10257000EEC0803409F46AC058F4803309F457C0BF
:10258000883309F0E4C08093F6030E948512DFC00F
:10259000803509F44FC0883509F45DC0883409F0EE
:1025A000D6C0D3C0883909F4C4C0A8F4883709F468
:1025B00067C038F4883609F463C0803709F460C016
:1025C000C6C0883809F4B5C0803909F45FC08038C6
:1025D00009F0BDC05BC0803B09F483C038F4803A89
:1025E00009F466C0883A09F47CC0B1C0803C09F4A3
:1025F000A4C0883C09F4A1C0883B09F487C0A7C0E7
:102600008091620410C090913B0480913A04981725
:1026100070F5E0913B0481E08E0F80933B04F0E085
:10262000E45CFB4F80818093BB0085EC83C080938A
:10263000F6038BC0E0913B0481E08E0F80933B0456
:102640008091BB00F0E0E45CFB4F808390913B0401
:1026500080913A046BC0E0913B0481E08E0F80933F
:102660003B048091BB00F0E0E45CFB4F80838091F1
:10267000610481116AC081E08093600484EA5EC0D5
:1026800083E0809363041092F703CFCF8091F70328
:10269000803208F04EC0E091F70381E08E0F809306
:1026A000F7038091BB00F0E0E850FC4F8083BDCF82
:1026B0000E9485128091F703803230F4E091F70395
:1026C000F0E0E850FC4F10826091F70370E0E09179
:1026D0005C04F0915D0488EF93E009951092F70394
:1026E00036C084E080936304109219041092180499
:1026F000E0915E04F0915F040995809118048111C6
:1027000005C081E08093180410921A04E091190426
:1027100081E08E0F80931904F0E0E65EFB4F80812C
:102720008093BB009091190480911804981708F4C5
:102730007CCF85E88093BC000AC085EC8093BC0008
:102740001092630404C01092F6030E947B12FF9162
:10275000EF91BF91AF919F918F917F916F915F9119
:102760004F913F912F910F900FBE0F901F90189592
:10277000CF93CFB7F89480916704811127C0E9E027
:10278000F1E08491EBEEF0E09491E82FF0E0EE0FB1
:10279000FF1FEE5CFE4FA591B491EC91E92321F46B
:1027A00061E081E10E94741561E081E10E943815C9
:1027B0008CB580618CBD8CB580648CBD61E08FE090
:1027C0000E94381561E080E10E943815809167040D
:1027D0008F5F80936704CFBFCF9108951F920F92B0
:1027E0000FB60F9211242F933F938F939F93AF9324
:1027F000BF938091690490916A04A0916B04B09199
:102800006C043091680426E0230F2D3720F40296E3
:10281000A11DB11D05C029E8230F0396A11DB11DFF
:10282000209368048093690490936A04A0936B04D6
:10283000B0936C0480916D0490916E04A0916F042C
:10284000B09170040196A11DB11D80936D04909309
:102850006E04A0936F04B0937004BF91AF919F91E9
:102860008F913F912F910F900FBE0F901F90189551
:102870002FB7F8946091690470916A0480916B0499
:1028800090916C042FBF08953FB7F89480916D0428
:1028900090916E04A0916F04B091700426B5A89B2E
:1028A00005C02F3F19F00196A11DB11D3FBFBA2FE2
:1028B000A92F982F8827820F911DA11DB11DBC0142
:1028C000CD0143E0660F771F881F991F4A95D1F706
:1028D00008958F929F92AF92BF92CF92DF92EF9224
:1028E000FF926B017C010E9444144B015C01C114F6
:1028F000D104E104F10401F10E940F210E9444146B
:10290000DC01CB0188199909AA09BB09883E9340CB
:10291000A105B10560F321E0C21AD108E108F10870
:1029200088EE880E83E0981EA11CB11CC114D1044E
:10293000E104F10419F7DBCFFF90EF90DF90CF9027
:10294000BF90AF909F908F900895789484B58260E7
:1029500084BD84B5816084BD85B5826085BD85B543
:10296000816085BDEEE6F0E0808181608083E1E8F2
:10297000F0E010828081826080838081816080832A
:10298000E0E8F0E0808181608083E1E9F0E080812F
:1029900082608083808181608083E0E9F0E08081D3
:1029A00081608083E1ECF0E08081846080838081BD
:1029B00082608083808181608083E3ECF0E08081AD
:1029C00081608083E0ECF0E0808182608083E2ECD3
:1029D000F0E0808181608083EAE7F0E080818460BC
:1029E000808380818260808380818E7F80838081EC
:1029F00080688083089590E0FC013197EF30F10505
:102A0000B0F5EA5AFF4F0C94A524809180008F778F
:102A100003C0809180008F7D809380000895809115
:102A20008000877FF9CF84B58F7702C084B58F7D12
:102A300084BD0895809190008F7707C080919000A9
:102A40008F7D03C080919000877F809390000895D0
:102A50008091C0008F7703C08091C0008F7D8093EC
:102A6000C00008958091C200877F8093C2000895BE
:102A7000CF93DF9390E0FC01E652FF4F2491FC01DD
:102A8000E850FF4F8491882361F190E0880F991FEF
:102A9000FC01EE5CFE4FC591D491FC01EC5DFE4F54
:102AA000A591B491611109C09FB7F89488812095D0
:102AB00082238883EC912E230BC0623061F49FB790
:102AC000F8943881822F809583238883EC912E2B74
:102AD0002C939FBF06C08FB7F894E8812E2B2883D4
:102AE0008FBFDF91CF9108951F93CF93DF93282F4E
:102AF00030E0F901E653FF4F8491F901E652FF4FB0
:102B0000D491F901E850FF4FC491CC23C9F0162F9E
:102B100081110E94FB14EC2FF0E0EE0FFF1FEC5D23
:102B2000FE4FA591B4918FB7F894111105C09C91F7
:102B3000ED2FE095E92302C0EC91ED2BEC938FBFD4
:102B4000DF91CF911F910895CF93DF93282F30E02D
:102B5000F901E653FF4F8491F901E652FF4FD491FA
:102B6000F901E850FF4FC491CC2391F081110E94EC
:102B7000FB14EC2FF0E0EE0FFF1FEA5EFE4FA59175
:102B8000B491EC91ED2381E090E021F480E002C06B
:102B900080E090E0DF91CF910895CF93DF931F9273
:102BA000CDB7DEB76983DC01ED91FC910280F38142
:102BB000E02D41E050E0BE016F5F7F4F09950F901F
:102BC000DF91CF910895CF93DF93EC018C859D85A4
:102BD00097FF05C082E00E94D91B9D878C878C855A
:102BE0009D85DF91CF91089583E00C946C1EFC01CC
:102BF0008485958597FD06C082E00E94831B90E046
:102C00000196089582E00E94831B90E00895FC01E4
:102C10008485958597FD05C02FEF3FEF3587248785
:102C2000089582E00C94D91BCF93DF93EC0180913F
:102C30002B01882331F083E00E940A1C1816190624
:102C400034F081E090E09B838A8380E090E0DF9124
:102C5000CF910895FC0190819E5F908342E450E003
:102C600060E471E080E80C94AB1CFC0181819081F0
:102C7000913A59F4813209F048C047E050E064E2EB
:102C800071E080E00E94AB1C76C09132F1F5833296
:102C900091F49381892F90E0982F88272281822BAD
:102CA000A0E0B0E08093200190932101A093220145
:102CB000B093230160C0803239F467E070E084E2B1
:102CC00091E00E94D21C06C0823209F054C0828179
:102CD00080932B018091C104882319F0EEEFFAE074
:102CE00002C0E0E0F8E08091240190912501A091DC
:102CF0002601B0912701803B9440A105B10539F42C
:102D000080912B0180FF1FC002C080E008950FB6A4
:102D1000F894A8958091600088618093600010927B
:102D200060000FBEA895EE3F8AE0F80739F0809169
:102D3000FE0A9091FF0A918380831DC01092FF0AC2
:102D40001092FE0A18C0EE3F2AE0F20731F08081AF
:102D500091819093FF0A8093FE0A87E797E791831A
:102D600080839BE088E10FB6F894A895809360007B
:102D70000FBE9093600081E008952FEF3FEFFC01BC
:102D8000358724870895E1E7F4E01382128288EE04
:102D900093E0A0E0B0E084839583A683B7838FE9B6
:102DA00092E0918380838FEF9FEF958784870895CA
:102DB000FC01918D228D892F90E0805C9F4F821BBA
:102DC00091098F7399270895FC01918D828D981731
:102DD00031F0828DE80FF11D858D90E008958FEF21
:102DE0009FEF0895FC01918D828D981761F0828D7F
:102DF000DF01A80FB11D5D968C91928D9F5F9F732F
:102E0000928F90E008958FEF9FEF089586E598E107
:102E1000892B49F080E090E0892B29F00E94561818
:102E200081110C9400000895FC01848DDF01A80F2E
:102E3000B11DA35ABF4F2C91848D90E001968F73E2
:102E40009927848FA689B7892C93A089B1898C9101
:102E500080648C93938D848D981306C00288F389C7
:102E6000E02D80818F7D80830895CF93DF93EC01E7
:102E7000888D8823C9F0EA89FB89808185FD05C09A
:102E8000A889B9898C9186FD0FC00FB607FCF5CFD4
:102E9000808185FFF2CFA889B9898C9185FFEDCF1C
:102EA000CE010E941417E7CFDF91CF910895EF92E2
:102EB000FF920F931F93CF93DF93EC0181E0888FF4
:102EC0009B8D8C8D981305C0E889F989808185FDDB
:102ED00024C0F62E0B8D10E00F5F1F4F0F731127CC
:102EE000E02E8C8DE8120CC00FB607FCFACFE889F3
:102EF000F989808185FFF5CFCE010E941417F1CFAB
:102F00008B8DFE01E80FF11DE35AFF4FF0820B8F0E
:102F1000EA89FB898081806207C0EE89FF8960832E
:102F2000E889F98980818064808381E090E0DF9185
:102F3000CF911F910F91FF90EF900895CF92DF9264
:102F4000EF92FF921F93CF93DF93EC016A017B0115
:102F5000122F60E874E88EE190E0A70196010E94CC
:102F60006424DA01C9010197A109B109B695A795B1
:102F700097958795AC01E889F98982E080834115AE
:102F800080E15807A8F0E889F989108260E472E4CA
:102F90008FE090E0A70196010E946424BA01A90184
:102FA0004150510961097109769567955795479583
:102FB000EC85FD855083EE85FF854083188EEC8976
:102FC000FD891083EA89FB89808180618083EA8999
:102FD000FB89808188608083EA89FB8980818068A1
:102FE0008083EA89FB8980818F7D8083DF91CF9107
:102FF0001F91FF90EF90DF90CF9008951F920F9256
:103000000FB60F9211242F938F939F93EF93FF93FB
:10301000E091D204F091D3048081E091D804F09142
:10302000D90482FD12C090818091DB048F5F8F7381
:103030002091DC04821751F0E091DB04F0E0EE53C4
:10304000FB4F958F8093DB0401C08081FF91EF914E
:103050009F918F912F910F900FBE0F901F901895F9
:103060001F920F920FB60F9211242F933F934F93FD
:103070005F936F937F938F939F93AF93BF93EF93E0
:10308000FF9382EC94E00E941417FF91EF91BF919F
:10309000AF919F918F917F916F915F914F913F91F0
:1030A0002F910F900FBE0F901F90189582EC94E017
:1030B0000E94D81621E0892B09F420E0822F089580
:1030C000E2ECF4E01382128288EE93E0A0E0B0E03C
:1030D00084839583A683B7838FEA92E0918380836C
:1030E0008DEC90E0958784878CEC90E097878687BD
:1030F00088EC90E0918B808B89EC90E0938B828BB5
:103100008AEC90E0958B848B8EEC90E0978B868B8D
:10311000118E128E138E148E0895CF92DF92EF923D
:10312000FF920F931F93CF93DF936C017A018B0172
:10313000C0E0D0E0CE15DF0589F0D8016D918D019A
:10314000D601ED91FC910190F081E02DC601099529
:10315000892B11F47E0102C02196ECCFC701DF91CB
:10316000CF911F910F91FF90EF90DF90CF90089536
:103170006115710579F0FB0101900020E9F73197A5
:10318000AF01461B570BDC01ED91FC910280F381EE
:10319000E02D099480E090E00895DC01ED91FC9130
:1031A000DB0114964D915C9115976D917C91028095
:1031B000F381E02D09940C94B818DC01ED91FC9199
:1031C0000190F081E02D099463E772E00C94B81847
:1031D0000F931F93CF93DF93EC010E94CD188C01C6
:1031E000CE010E94E418800F911FDF91CF911F91B3
:1031F0000F9108950F931F93CF93DF93EC010E94DB
:10320000B8188C01CE010E94E418800F911FDF9145
:10321000CF911F910F9108954F925F926F927F927D
:10322000EF92FF920F931F93CF93DF93CDB7DEB74B
:10323000A1970FB6F894DEBF0FBECDBF7C01FA0197
:10324000CB0119A2223008F42AE08E010F5D1F4F36
:10325000422E512C612C712CBF01A30192010E94BE
:103260006424F901CA01015011096A3014F4605D47
:1032700001C0695CD8016C93232B242B252B61F7AB
:10328000B801C7010E94B818A1960FB6F894DEBF26
:103290000FBECDBFDF91CF911F910F91FF90EF90A7
:1032A0007F906F905F904F900895CF92DF92EF9252
:1032B000FF920F931F93CF93DF93EC016A017B0181
:1032C0002115310579F4E881F9810190F081E02D33
:1032D000642FDF91CF911F910F91FF90EF90DF90BE
:1032E000CF9009942A303105E9F477FF1AC06DE2D6
:1032F0000E94DD188C0144275527BA014C195D093D
:103300006E097F092AE0CE010E940C19800F911FDF
:10331000DF91CF911F910F91FF90EF90DF90CF90B1
:1033200008952AE0B701A601CE01DF91CF911F9148
:103330000F91FF90EF90DF90CF900C940C190F93AA
:103340001F93CF93DF93EC019A01AB01770F660BCC
:10335000770B0E9455198C01CE010E94E418800F52
:10336000911FDF91CF911F910F9108952115310584
:1033700041F4DC01ED91FC910190F081E02D642F8E
:1033800009940C940C190F931F93CF93DF93EC01C6
:103390000E94B6198C01CE010E94E418800F911F83
:1033A000DF91CF911F910F9108954F925F926F928D
:1033B0007F928F929F92AF92BF92CF92DF92EF92C5
:1033C000FF92CF93DF93EC016A017B01B22E9A0149
:1033D000AB01C701B6010E943B24882319F06BEBB7
:1033E00072E027C026013701E89477F82FEF3FEF0E
:1033F0004FE75FE7C301B2010E943B2481110DC07A
:103400002FEF3FEF4FE75FE7C301B2010E941622A3
:1034100018161CF46FEB72E00CC02FEF3FEF4FE774
:103420005FE4C701B6010E94C92318169CF463EC3F
:1034300072E0CE01DF91CF91FF90EF90DF90CF90BF
:10344000BF90AF909F908F907F906F905F904F90C4
:103450000C94B8182FEF3FEF4FE75FECC701B601B0
:103460000E94162287FDE3CF20E030E0A901C701CA
:10347000B6010E94162287FF0AC06DE2CE010E94AB
:10348000DD184C01F7FAF094F7F8F09402C0812CA3
:10349000912CA12C60E070E080E09FE3AB1441F040
:1034A00020E030E040E251E40E941B22A394F6CFDA
:1034B0009B01AC01C701B6010E94AA212B013C016E
:1034C0000E9494226B017C010E94C9229B01AC01E5
:1034D000C301B2010E94A9212B013C012AE0B701DE
:1034E000A601CE010E940C197C01E80CF91CBB203E
:1034F00039F067EC72E0CE010E94B818E80EF91EB0
:10350000DB2CDD2029F120E030E040E251E4C30172
:10351000B2010E94CE232B013C010E9494224B0158
:10352000A12CB12C2AE0B501A401CE010E940C19F6
:10353000E80EF91EC501B4010E94C9229B01AC012D
:10354000C301B2010E94A9212B013C01DA94D9CF19
:10355000C701DF91CF91FF90EF90DF90CF90BF90A8
:10356000AF909F908F907F906F905F904F90089555
:103570000F931F93CF93DF93EC010E94D5198C0119
:10358000CE010E94E418800F911FDF91CF911F910F
:103590000F910895615030F02091F100FC012083DB
:1035A0000196F8CF289884E68093680508954091A5
:1035B00063055091640520916105309162054217C1
:1035C0005307B4F49091E8009570E1F39091E8000E
:1035D00092FD19C08093F10080916305909164057C
:1035E00001968F739927892B19F48EEF8093E80049
:1035F0008091630590916405019690936405809392
:10360000630581E0089580E00895CF92DF92EF9204
:10361000FF920F931F93CF93DF931F92CDB7DEB727
:10362000182F062FE42E862F880F8E5F99830E9415
:10363000D71A83E00E94D71AF12EC12E9981D92E74
:103640008C2D8F19801798F4F601E7FE02C0849143
:1036500001C080810E94D71A182F80E00E94D71ADB
:103660008123FFEFCF1ADF0A8111EACF01C081E089
:103670000F90DF91CF911F910F91FF90EF90DF900E
:10368000CF9008958091D70081608093D70080EA21
:103690008093D80089B58F7E89BD89B5826089BD48
:1036A00009B400FEFDCF61E070E080E090E00E9490
:1036B00069148091D8008F7C80618093D8008091BC
:1036C000E000807F8093E0000895CF93DF931F9206
:1036D000CDB7DEB71982CE0101960E942A160E944C
:1036E0009521BE016F5F7F4F0E94102189810F904D
:1036F000DF91CF9108952FB7FC012083F894677074
:103700006093E9000895CF93DF931F92CDB7DEB7A2
:10371000682FCE0101960E947B1B8091F200998157
:103720009FBF0F90DF91CF910895EF92FF920F937B
:103730001F93CF93DF931F92CDB7DEB790916705AC
:10374000992311F057FF03C08FEF9FEF2AC08A0122
:103750007B01682FCE0101960E947B1B8091F200B5
:1037600090E0A801801791070CF4AC01842FF701B9
:1037700094E6815038F02898909368052091F100E4
:103780002193F7CF4115510521F08091F200882354
:1037900021F089818FBFCA0104C08BE68093E800C5
:1037A000F8CF0F90DF91CF911F910F91FF90EF9085
:1037B0000895CF93DF931F92CDB7DEB741E050E07D
:1037C000BE016F5F7F4F0E94951B019719F489819D
:1037D00090E002C08FEF9FEF0F90DF91CF9108959F
:1037E000CF93DF931F92CDB7DEB7682FCE0101963E
:1037F0000E947B1B9091E800892F807295FF04C086
:103800009091F2008FE3891B99819FBF0F90DF9108
:10381000CF9108956F927F928F929F92AF92BF92B5
:10382000CF92DF92EF92FF920F931F93CF93DF938C
:103830001F92CDB7DEB7A82E6B01B42E052F809155
:103840006705811103C08FEF9FEF6AC08091650506
:1038500080FF05C08091E00082608093E000EB2C47
:10386000F02E8AEF982E8A2D8072782E9AE3892E78
:103870008A2D8074682EE114F10409F447C08A2D62
:103880000E94F01B182F81110AC09A949920D9F236
:1038900061E070E080E090E00E946914ECCF90E07D
:1038A000E816F9060CF41E2D6A2DCE0101960E9431
:1038B0007B1B8091E80085FF26C0812F90E0E81AED
:1038C000F90A772029F01150A8F01092F100FBCFEF
:1038D000F601A7FE07C0115058F024912093F10083
:1038E0003196F9CF115020F021912093F100FACFB9
:1038F000C80ED91E8091E80085FF0FC0E114F104C5
:1039000011F461100AC089818FBFB5CF5D9884E63C
:10391000809369058B2D902F03C08092E800F3CF30
:103920000F90DF91CF911F910F91FF90EF90DF905B
:10393000CF90BF90AF909F908F907F906F900895A1
:103940001092E9001092640510926305909362054D
:10395000809361050895DF92EF92FF920F931F937A
:10396000CF93DF93D82E8A017B01E40EF51EEB0185
:10397000CE15DF0571F0D7FE03C0FE01849101C0B2
:1039800088810E94D71A21968111F2CF8FEF9FEF85
:1039900001C0C801DF91CF911F910F91FF90EF906F
:1039A000DF900895BF92CF92DF92EF92FF920F9334
:1039B0001F93CF93DF936C018B01EB019BEFB92E2B
:1039C0002097C1F07E01C134D1051CF080E4E82EBF
:1039D000F12C8091E80082FFFCCFC8018C1B9D0B6D
:1039E0006E2D8C0D9D1D0E94CA1AB092E800CE1952
:1039F000DF09E6CFC801DF91CF911F910F91FF90B2
:103A0000EF90DF90CF90BF9008951F920F920FB666
:103A10000F921124CF92DF92EF92FF920F931F9398
:103A20002F933F934F935F936F937F938F939F93C6
:103A3000AF93BF93EF93FF93CF93DF93CDB7DEB7F1
:103A40006C97DEBFCDBF1092E9008091E80083FF44
:103A500024C168E0CE0145960E94CA1A82EF809385
:103A6000E8008D8987FF05C09091E80090FFFCCFAA
:103A700003C09EEF9093E800982F907609F0F1C074
:103A80009E892F89188D91110CC0803829F480915E
:103A900066058093F10002C01092F1001092F100CF
:103AA000F5C0422F50E0512B913051F48111EEC0FE
:103AB0004130510509F0EAC0809166058D7F0BC049
:103AC000933061F48111E2C04130510509F0DEC04C
:103AD00080916605826080936605D8C0953041F478
:103AE0008091E80080FFFCCF20682093E300CEC0E7
:103AF000963009F08CC0EB8CFC8C123069F580E0BC
:103B000090E00E94A01C0E94651B99E09E012F5F1F
:103B10003F4F6901F901292F11922A95E9F79983FD
:103B20001A8391E09E8390EA98879AEF9987209173
:103B3000630530916405275F3F4F3C832B838D8362
:103B4000C7010E94A01C49E050E0B60180E00E943D
:103B5000AB1C0E94651B9AC0C7010E94A01C0E945A
:103B60009521BE016B5E7F4F0E943921009719F0AD
:103B70000CF08CC08FC0113071F48B8D9C8D089728
:103B800019F481E0809360058091600581112FC058
:103B900064E971E031C0133009F07CC08F8988235B
:103BA00049F1823029F440E865E184EB91E006C0F8
:103BB000813039F440E86DE086EA91E00E94051B0F
:103BC00063C0833009F066C00E9495218E010F5FAB
:103BD0001F4FB8010E945821F80101900020E9F719
:103BE0003197BF01601B710B40E0C801E7CF62E86D
:103BF00071E002C06AEC71E06115710509F44AC018
:103C0000FB01449150E080E80E94AB1C3FC097301C
:103C100009F440C0983021F481E08093F10036C06F
:103C20009930A1F58370B1F5EDE2F1E081E021E09A
:103C300036E39081992361F08093E9002093EB00B3
:103C400091919093EC003093ED008F5F873089F76E
:103C50008EE78093EA001092EA008F8980936705CF
:103C600015C08B8D9C8D0E94A01C898D811105C073
:103C7000CE0145960E94351607C00E949521BE01CF
:103C80006B5E7F4F0E947721882321F08EEF809317
:103C9000E80003C081E28093EB006C960FB6F894C5
:103CA000DEBF0FBECDBFDF91CF91FF91EF91BF91EE
:103CB000AF919F918F917F916F915F914F913F91C4
:103CC0002F911F910F91FF90EF90DF90CF900F9069
:103CD0000FBE0F901F9018958093E9008091F2001D
:103CE000882319F08AE38093E80008951F920F92C9
:103CF0000FB60F9211242F933F934F935F936F93BF
:103D00007F938F939F93AF93BF93CF93EF93FF9343
:103D1000C091E1008091E100837F8093E100C3FFC7
:103D20000FC01092E90081E08093EB001092EC004C
:103D300082E38093ED001092670588E08093F000A5
:103D4000C2FF19C083E00E946C1E80916905882320
:103D500039F080916905815080936905882389F144
:103D600080916805882339F080916805815080939F
:103D70006805882341F1C4FF10C08091E2008E7E67
:103D800081608093E2008091E1008F7E8093E1006A
:103D9000809165058E7E806111C0C0FF16C0809144
:103DA000E2008E7E80618093E2008091E1008E7E51
:103DB0008093E100809165058E7E8160809365052A
:103DC00004C05D9ACDCF289AD6CFFF91EF91CF91C5
:103DD000BF91AF919F918F917F916F915F914F9123
:103DE0003F912F910F900FBE0F901F90189510923A
:103DF000670510926605109265050E94421B80912E
:103E0000E1008E7E8093E1008DE08093E200559A80
:103E1000209AEEEFFFE7859194918B3F9C4D19F42A
:103E200081E08093C10408950895FC01808191810F
:103E30000C941B27CF93DF93EC0188819981009725
:103E400011F00E941B27198218821D821C821B827E
:103E50001A82DF91CF9108950F931F93CF93DF9331
:103E6000EC018B016F5F7F4F888199810E94B3279E
:103E7000009731F0998388831B830A8381E001C016
:103E800080E0DF91CF911F910F910895CF93DF9341
:103E9000EC0188819981892B29F08A819B81861781
:103EA000970760F4CE010E942C1F882341F08C817B
:103EB0009D81892B19F4E881F981108281E0DF91DD
:103EC000CF910895EF92FF920F931F93CF93DF93BB
:103ED000EC017B018A01BA010E94461F811104C0D6
:103EE000CE010E941A1F07C01D830C83B701888171
:103EF00099810E949328CE01DF91CF911F910F915C
:103F0000FF90EF900895FC011182108213821282BB
:103F1000158214826115710551F0FB01019000209A
:103F2000E9F73197AF01461B570B0C94621F0895B8
:103F30000F931F93CF93DF938C01EB01FC018081E2
:103F400091810097D1F0688179816115710599F0AF
:103F500024E13FE1232B79F0428153812C813D8183
:103F60004217530740F00E9493288C819D81F801ED
:103F70009583848313C00E941B2788819981F8014F
:103F8000918380838A819B81938382838C819D81AD
:103F900095838483198218821B821A821D821C8257
:103FA000DF91CF911F910F910895CF93DF93EC0193
:103FB000FB018617970761F06081718161157105BA
:103FC00029F0448155810E94621F02C00E941A1F7D
:103FD000CE01DF91CF910895FC01118210821382EE
:103FE0001282158214820C94D51FCF93DF93EC01BB
:103FF0008617970711F00E94981FCE01DF91CF918D
:104000000895CF93DF93EC016115710559F0FB0121
:1040100001900020E9F73197AF01461B570B0E9432
:10402000621F02C00E941A1FCE01DF91CF91089536
:104030000F931F93CF93DF93CDB7DEB762970FB681
:10404000F894DEBF0FBECDBF8C01CB01F801118209
:104050001082138212821582148250E0BE016F5FBB
:104060007F4F0E949A28BE016F5F7F4FC8010E9458
:10407000012062960FB6F894DEBF0FBECDBFDF9170
:10408000CF911F910F9108950F931F93CF93DF93BB
:10409000CDB7DEB7A1970FB6F894DEBF0FBECDBF88
:1040A0008C01CB01BA01F8011182108213821282B5
:1040B0001582148230E0AE014F5F5F4F0E94B0283E
:1040C000BE016F5F7F4FC8010E940120A1960FB60D
:1040D000F894DEBF0FBECDBFDF91CF911F910F913E
:1040E0000895EF92FF920F931F93CF93DF93CDB775
:1040F000DEB7A1970FB6F894DEBF0FBECDBF7C012F
:10410000CB01BA01F701118210821382128215824B
:10411000148242E0420F8E010F5F1F4F0E946626FD
:10412000BC01C7010E940120A1960FB6F894DEBF22
:104130000FBECDBFDF91CF911F910F91FF90EF90F8
:104140000895EF92FF920F931F93CF93DF93FC019B
:10415000248135816115710511F480E019C0411584
:104160005105A9F07B01EC018A01020F131FB80170
:104170000E94461F882389F3288139818C819D8183
:10418000B701820F931F0E9493281D830C8381E047
:10419000DF91CF911F910F91FF90EF900895CF93F2
:1041A000DF93EC01FB0144815581608171810E94A4
:1041B000A120811103C0CE010E941A1FCE01DF9100
:1041C000CF910895CF93DF93EC016115710561F0F4
:1041D000FB0101900020E9F73197AF01461B570B17
:1041E0000E94A120811103C0CE010E941A1FCE019E
:1041F000DF91CF91089508950E94A5140E94FB209D
:104200008FE595E00E94F71E0E94DE01C6E0D7E12F
:104210000E9449062097E1F30E940617F9CF0895FE
:10422000EF92FF920F931F93CF93DF937B01FC01DB
:10423000C281D38100E010E0209781F0E881F9810C
:104240000280F381E02DB701CE01099597FD08C0EA
:10425000080F191F0884D985C02DEECFC80102C0F0
:104260008FEF9FEFDF91CF911F910F91FF90EF9014
:1042700008950F931F93CF93DF938B01FC01C281AD
:10428000D381209771F0E881F9810480F581E02DD8
:10429000B801CE010995009731F40884D985C02D65
:1042A000F0CF80E090E0DF91CF911F910F910895C2
:1042B0000F931F93CF93DF938B01FC01C281D381B6
:1042C000209771F0E881F9810680F781E02DB8012F
:1042D000CE010995080F111D0884D985C02DF0CF96
:1042E000F8011082DF91CF911F910F9108950F93E4
:1042F0001F93CF93DF938B01FC01C281D381209761
:1043000071F0E881F9810190F081E02DB801CE01D2
:104310000995811105C00884D985C02DF0CF80E0B2
:10432000DF91CF911F910F91089580916E058111BA
:104330000DC082E080936A0584E080936B05109243
:104340006D0510926C0581E080936E058AE695E01C
:1043500008955058BB27AA270E94C1210C948F238F
:104360000E94812338F00E94882320F039F49F3F77
:1043700019F426F40C946E230EF4E095E7FB0C94EC
:104380006823E92F0E94A02358F3BA176207730726
:104390008407950720F079F4A6F50C94C2230EF457
:1043A000E0950B2EBA2FA02D0B01B90190010C0145
:1043B000CA01A0011124FF27591B99F0593F50F45D
:1043C000503E68F11A16F040A22F232F342F4427B5
:1043D000585FF3CF469537952795A795F0405395AD
:1043E000C9F77EF41F16BA0B620B730B840BBAF07D
:1043F0009150A1F0FF0FBB1F661F771F881FC2F7E8
:104400000EC0BA0F621F731F841F48F487957795FB
:104410006795B795F7959E3F08F0B0CF9395880FB5
:1044200008F09927EE0F9795879508950E944423E9
:1044300008F481E008950E942F220C948F230E949B
:10444000882358F00E94812340F029F45F3F29F02F
:104450000C94682351110C94C3230C946E230E9476
:10446000A02368F39923B1F3552391F3951B550BC2
:10447000BB27AA2762177307840738F09F5F5F4F37
:10448000220F331F441FAA1FA9F335D00E2E3AF076
:10449000E0E832D091505040E695001CCAF72BD08E
:1044A000FE2F29D0660F771F881FBB1F26173707DF
:1044B0004807AB07B0E809F0BB0B802DBF01FF2711
:1044C00093585F4F3AF09E3F510578F00C94682363
:1044D0000C94C3235F3FE4F3983ED4F3869577951D
:1044E0006795B795F7959F5FC9F7880F911D9695CA
:1044F000879597F90895E1E0660F771F881FBB1F26
:10450000621773078407BA0720F0621B730B840BD2
:10451000BA0BEE1F88F7E09508950E9494226894E4
:10452000B1110C94C32308950E94A82388F09F57CB
:1045300098F0B92F9927B751B0F0E1F0660F771FC7
:10454000881F991F1AF0BA95C9F714C0B13091F0BD
:104550000E94C223B1E008950C94C223672F782FE4
:104560008827B85F39F0B93FCCF386957795679582
:10457000B395D9F73EF490958095709561957F4FEE
:104580008F4F9F4F089597FB16F40E9471230C9450
:104590000723E89409C097FB3EF4909580957095A9
:1045A00061957F4F8F4F9F4F9923A9F0F92F96E97F
:1045B000BB279395F695879577956795B795F111F4
:1045C000F8CFFAF4BB0F11F460FF1BC06F5F7F4F91
:1045D0008F4F9F4F16C0882311F096E911C07723A3
:1045E00021F09EE8872F762F05C0662371F096E8AC
:1045F000862F70E060E02AF09A95660F771F881F7B
:10460000DAF7880F9695879597F90895E894F92F2A
:1046100096EBFF2381F0121613061406440B9395B4
:10462000F69587957795679557954040FF23B9F79D
:104630001BC099270895882351F49850D2F7872BEF
:10464000762F652F542F432F322F20E0B1F312160F
:1046500013061406440B88233AF09A95440F551F0D
:10466000661F771F881FCAF755234AF4440F551F4A
:1046700011F460FF04C06F5F7F4F8F4F9F4F880F13
:104680009695879597F90895990F0008550FAA0BED
:10469000E0E8FEEF16161706E807F907C0F0121655
:1046A0001306E407F50798F0621B730B840B950B58
:1046B00039F40A2661F0232B242B252B21F40895AD
:1046C0000A2609F4A140A6958FEF811D811D08954A
:1046D00097F99F6780E870E060E008959FEF80ECB5
:1046E000089590958095709560955095409530957A
:1046F00021953F4F4F4F5F4F6F4F7F4F8F4F9F4FD2
:10470000089500240A941616170618060906089537
:1047100000240A9412161306140605060895092E9D
:104720000394000C11F4882352F0BB0F40F4BF2B0C
:1047300011F460FF04C06F5F7F4F8F4F9F4F08954C
:1047400057FD9058440F551F59F05F3F71F0479542
:10475000880F97FB991F61F09F3F79F08795089527
:10476000121613061406551FF2CF4695F1DF08C046
:10477000161617061806991FF1CF86957105610563
:1047800008940895E894BB2766277727CB0197F90B
:1047900008950E94442308F48FEF08950E94E123B6
:1047A0000C948F230E94812338F00E94882320F0EC
:1047B000952311F00C9468230C946E2311240C940F
:1047C000C3230E94A02370F3959FC1F3950F50E07F
:1047D000551F629FF001729FBB27F00DB11D639FB3
:1047E000AA27F00DB11DAA1F649F6627B00DA11D59
:1047F000661F829F2227B00DA11D621F739FB00DFF
:10480000A11D621F839FA00D611D221F749F33276E
:10481000A00D611D231F849F600D211D822F762F07
:104820006A2F11249F5750409AF0F1F088234AF0E4
:10483000EE0FFF1FBB1F661F771F881F9150504050
:10484000A9F79E3F510580F00C9468230C94C32374
:104850005F3FE4F3983ED4F3869577956795B795D7
:10486000F795E7959F5FC1F7FE2B880F911D9695F1
:10487000879597F908950E944423880B990B089512
:10488000DB018F939F930E94AB24BF91AF91A29FB6
:10489000800D911DA39F900DB29F900D112408953E
:1048A00097FB072E16F4009407D077FD09D00E94DD
:1048B000432607FC05D03EF4909581959F4F0895BF
:1048C000709561957F4F0895A1E21A2EAA1BBB1B1C
:1048D000FD010DC0AA1FBB1FEE1FFF1FA217B307CC
:1048E000E407F50720F0A21BB30BE40BF50B661FE2
:1048F000771F881F991F1A9469F7609570958095A6
:1049000090959B01AC01BD01CF010895052E97FB49
:104910001EF400940E949D2457FD07D00E94642439
:1049200007FC03D04EF40C949D245095409530958F
:1049300021953F4F4F4F5F4F08959095809570950B
:1049400061957F4F8F4F9F4F0895EE0FFF1F05908A
:10495000F491E02D09940E945726A59F900DB49FD5
:10496000900DA49F800D911D11240895B7FF0C9404
:10497000AB240E94AB24821B930B0895DF93CF934B
:104980001F930F939A9DF02D219FF00D8B9DF00D9D
:104990008A9DE02DF10D039FF00D029FE00DF11DAA
:1049A0004E9DE00DF11D5E9DF00D4F9DF00D7F932E
:1049B0006F93BF92AF925F934F93D5010E9457269A
:1049C0008B01AC01D7010E945726EB01E80FF91FBC
:1049D000D6010E940E252F913F91D6010E945726A5
:1049E000C60FD71FE81FF91FAF91BF910E940E2578
:1049F0002F913F910E945726C60FD71FE81FF91F1E
:104A0000D6010E945726E60FF71F9801BE01CF017D
:104A100011240F911F91CF91DF9108950E94572685
:104A2000460F571FC81FD91F08F431960895689480
:104A300001C0E894F92FF12B12F00C944B25A0E063
:104A4000B0E0E5E2F5E20C94BD25092E059422F4D0
:104A50000E94A725112392F4F0E80F26FFEFE094BF
:104A6000F09400951095B094C094D094A194BF0A8E
:104A7000CF0ADF0AEF0AFF0A0F0B1F0B0E94562511
:104A800007FC0E94A725CDB7DEB7ECE00C94D92532
:104A9000689401C0E8948F929F92CF93DF930E9415
:104AA0005625DF91CF919F908F9008958824992467
:104AB000F401E401B0E49F93AA279A158B049C04A7
:104AC000ED05FE05CF05D007A10798F4AD2FDC2F2B
:104AD000CF2FFE2FE92D982C892E982F872F762FF8
:104AE000652F542F432F322F2227B85031F7BF9113
:104AF00027C01B2EBF91BB27220F331F441F551FFA
:104B0000661F771F881F991F881C991CEE1FFF1FA7
:104B1000CC1FDD1FAA1FBB1F8A149B04EC05FD05DB
:104B2000CE05DF05A007B10748F08A189B08EC09FD
:104B3000FD09CE09DF09A00BB10B21601A94E1F643
:104B40002EF49401AF01BE01CD01000C08956095D3
:104B500070958095909530954095509521953F4F53
:104B60004F4F5F4F6F4F7F4F8F4F9F4F08952F9243
:104B70003F924F925F926F927F928F929F92AF92ED
:104B8000BF92CF92DF92EF92FF920F931F93CF933A
:104B9000DF93CDB7DEB7CA1BDB0B0FB6F894DEBFD1
:104BA0000FBECDBF09942A88398848885F846E84F7
:104BB0007D848C849B84AA84B984C884DF80EE8041
:104BC000FD800C811B81AA81B981CE0FD11D0FB64A
:104BD000F894DEBF0FBECDBFED0108950F930830EE
:104BE00090F0982F872F762F652F542F432F322F39
:104BF00022270850F4CF220F331F441F551F661F72
:104C0000771F881F991F0A95B2F70F91089597FB98
:104C100010F8169400080F93083098F00850232FCE
:104C2000342F452F562F672F782F892F902DF4CFB3
:104C300005949795879577956795579547953795F7
:104C400027950A95AAF70F9108952A0D3B1D4C1D33
:104C50005D1D6E1D7F1D801F911F08952A193B0940
:104C60004C095D096E097F09800B910B08950024A2
:104C7000A7FD00942A173005400550056005700512
:104C8000800590050895AA1BBB1B51E107C0AA1F10
:104C9000BB1FA617B70710F0A61BB70B881F991FDD
:104CA0005A95A9F780959095BC01CD010895A29FD2
:104CB000B001B39FC001A39F700D811D1124911DF0
:104CC000B29F700D811D1124911D0895EF920F93D5
:104CD0001F93CF93DF93E80147FD02C034E001C08A
:104CE00034E1E42F440FFF0BF7FF03C0F195E1958A
:104CF000F109E32E022F2E2FAE010E94EC2ACE01E5
:104D0000DF91CF911F910F91EF900895CF93DF9393
:104D10008230910510F482E090E0E0917805F09106
:104D2000790520E030E0C0E0D0E0309711F140811B
:104D3000518148175907C0F04817590761F482811B
:104D40009381209719F09B838A832BC090937905D8
:104D50008093780526C02115310519F042175307B5
:104D600018F49A01BE01DF01EF010280F381E02D0A
:104D7000DCCF2115310509F1281B390B2430310511
:104D800090F412968D919C9113976115710521F005
:104D9000FB019383828304C0909379058093780507
:104DA000FD01329644C0FD01E20FF31F8193919300
:104DB000225031092D933C933AC0209176053091D1
:104DC0007705232B41F420910201309103013093A8
:104DD000770520937605209100013091010121157E
:104DE000310541F42DB73EB74091040150910501C2
:104DF000241B350BE0917605F0917705E217F30758
:104E0000A0F42E1B3F0B2817390778F0AC014E5F3A
:104E10005F4F2417350748F04E0F5F1F50937705FB
:104E2000409376058193919302C0E0E0F0E0CF01DA
:104E3000DF91CF9108950F931F93CF93DF93009746
:104E400009F48CC0FC01329713821282009178051C
:104E5000109179050115110581F420813181820FAE
:104E6000931F20917605309177052817390779F53A
:104E7000F0937705E093760571C0D80140E050E0EB
:104E8000AE17BF0750F412962D913C911397AD01C8
:104E90002115310509F1D901F3CF9D01DA013383E1
:104EA000228360817181860F971F8217930769F4AF
:104EB000EC0128813981260F371F2E5F3F4F318348
:104EC00020838A819B8193838283452B29F4F093ED
:104ED0007905E093780542C01396FC93EE93129700
:104EE000ED01499159919E01240F351FE217F307F7
:104EF00071F480819181840F951F029611969C9385
:104F00008E938281938113969C938E931297E0E007
:104F1000F0E0D80112968D919C911397009719F0AB
:104F2000F8018C01F6CF8D919C9198012E5F3F4F37
:104F3000820F931F20917605309177052817390746
:104F400069F4309729F4109279051092780502C01F
:104F5000138212821093770500937605DF91CF912B
:104F60001F910F910895A0E0B0E0E9EBF7E20C94F7
:104F7000BB25EC01009721F4CB010E948626B8C026
:104F8000FC01E60FF71F9C0122503109E217F307DD
:104F900008F4ACC0D9010D911C91119706171707A1
:104FA000B0F00530110508F49FC0C80104978617BA
:104FB000970708F499C002501109061B170B0193BB
:104FC00011936D937C93CF010E941B278DC05B01D1
:104FD000A01AB10A4C01800E911EA0917805B091E3
:104FE000790540E050E0E12CF12C109709F44AC01B
:104FF000A815B905D1F56D907C901197630182E0F9
:10500000C80ED11CCA14DB0480F1A3014A195B0944
:105010006A0182E0C80ED11C1296BC9012971396BA
:10502000AC91B5E0CB16D10440F0B282A38351839A
:105030004083D9016D937C930AC00E5F1F4FC3015B
:10504000800F911FF90191838083EB2DFA2FE114DA
:10505000F10431F0D7011396FC93EE93129744C0FC
:10506000F0937905E09378053FC08D919C9111975D
:105070004817590708F4AC017D0112960D90BC91B8
:10508000A02DB3CF8091760590917705881599056D
:10509000E1F446175707C8F480910001909101018F
:1050A000009741F48DB79EB74091040150910501DE
:1050B000841B950BE817F907C8F4F0937705E09384
:1050C0007605F901718360830FC0CB010E948626AB
:1050D0007C01009759F0A801BE010E948A28CE01E8
:1050E0000E941B27C70104C0CE0102C080E090E0EF
:1050F000CDB7DEB7EEE00C94D725662777270C9462
:105100007A2C91110C94AF2E803219F08950855071
:10511000C8F70895FB01DC0102C001900D924150D7
:105120005040D8F70895FB01DC0101900D9200205A
:10513000E1F708954532510520F4423010F00C9407
:10514000A528FB011082CB010895BB274A3031F41A
:10515000992322F4BDE2909581959F4F0C94DE280F
:105160002532310520F4223010F00C94BB28FA01CE
:105170001082CA010895BB27FA01A62F6217710594
:1051800081059105330B30FB66F0AA27660F771F68
:10519000881F991FAA1FA21710F0A21B63953850F1
:1051A000A9F7A05DAA3308F0A95DA19336F7B11164
:1051B000B1931082CA010C94E02EBB27FB01552746
:1051C000AA27880F991FAA1FA41710F0A41B839564
:1051D0005051B9F7A05DAA3308F0A95DA1930097DB
:1051E00079F7B111B1931192CB010C94E02EAEE09E
:1051F000B0E0EDEFF8E20C94C5250D891E8986E03C
:105200008C831A8309838FEF9FE79E838D83AE0182
:10521000475E5F4F6F89788DCE0101960E941A29F3
:105220002F813885F801E20FF31F10822E96E4E0FB
:105230000C94E125ACE0B0E0E0E2F9E20C94B72593
:105240007C016B018A01FC0117821682838181FF38
:10525000BDC1CE0101964C01F7019381F60193FD8A
:10526000859193FF81916F01882309F4ABC1853249
:1052700039F493FD859193FF81916F01853229F473
:10528000B70190E00E94F02EE7CF512C312C20E0A6
:105290002032A0F48B3269F030F4803259F083323E
:1052A00069F420612CC08D3239F0803339F42160EB
:1052B00026C02260246023C0286021C027FD27C0AB
:1052C00030ED380F3A3078F426FF06C0FAE05F9EE2
:1052D000300D1124532E13C08AE0389E300D112456
:1052E000332E20620CC08E3221F426FD6BC1206467
:1052F00006C08C3611F4206802C0883641F4F601ED
:1053000093FD859193FF81916F018111C1CF982FFA
:105310009F7D9554933028F40C5F1F4FFFE3F98372
:105320000DC0833631F0833771F0833509F05BC0EF
:1053300022C0F801808189830E5F1F4F442443946B
:10534000512C540115C03801F2E06F0E711CF801A8
:10535000A080B18026FF03C0652D70E002C06FEF12
:105360007FEFC5012C870E94D52E2C0183012C854F
:105370002F77222E17C03801F2E06F0E711CF80152
:10538000A080B18026FF03C0652D70E002C06FEFE2
:105390007FEFC5012C870E94CA2E2C012C85206826
:1053A000222E830123FC1BC0832D90E04816590652
:1053B000B0F4B70180E290E00E94F02E3A94F4CF6E
:1053C000F50127FC859127FE81915F01B70190E0EF
:1053D0000E94F02E31103A94F1E04F1A5108411416
:1053E000510471F7E5C0843611F0893639F5F801BA
:1053F00027FF07C060817181828193810C5F1F4FFD
:1054000008C060817181072E000C880B990B0E5F1C
:105410001F4F2F76722E97FF09C09095809570953B
:1054200061957F4F8F4F9F4F2068722E2AE030E0AA
:10543000A4010E94282FA82EA81844C0853729F45B
:105440002F7EB22E2AE030E025C0F22FF97FBF2E4A
:105450008F36C1F018F4883579F0B4C0803719F070
:10546000883721F0AFC02F2F2061B22EB4FE0DC0BF
:105470008B2D8460B82E09C024FF0AC09F2F966030
:10548000B92E06C028E030E005C020E130E002C0BF
:1054900020E132E0F801B7FE07C0608171818281AE
:1054A00093810C5F1F4F06C06081718180E090E0A6
:1054B0000E5F1F4FA4010E94282FA82EA818FB2DB5
:1054C000FF777F2E76FE0BC0372D3E7FA51450F45C
:1054D00074FE0AC072FC08C0372D3E7E05C0BA2C8F
:1054E000372D03C0BA2C01C0B52C34FF0DC0FE010E
:1054F000EA0DF11D8081803311F4397E09C032FF3D
:1055000006C0B394B39404C0832F867809F0B39493
:1055100033FD13C030FF06C05A2CB31418F4530CDB
:105520005B18B32CB31468F4B70180E290E03C87B9
:105530000E94F02EB3943C85F5CFB31410F43B18C1
:1055400001C0312C34FF12C0B70180E390E03C87EA
:105550000E94F02E3C8532FF17C031FD03C088E762
:1055600090E002C088E590E0B7010CC0832F8678F8
:1055700059F031FF02C08BE201C080E237FD8DE2BD
:10558000B70190E00E94F02EA51438F4B70180E333
:1055900090E00E94F02E5A94F7CFAA94F401EA0DFD
:1055A000F11D8081B70190E00E94F02EA110F5CF8F
:1055B000332009F451CEB70180E290E00E94F02E32
:1055C0003A94F6CFF7018681978102C08FEF9FEF63
:1055D0002C96E2E10C94D3254F925F926F927F92CA
:1055E0009F92AF92BF92CF92DF92EF92FF920F9372
:1055F0001F93CF93DF93CDB7DEB729970FB6F894FB
:10560000DEBF0FBECDBF6A01122FB02E2BE32017D5
:1056100020F0FF24F394F00E02C0BCE3FB2E0F2D0C
:1056200027E0AE014F5F5F4F0E94D72DAC0189810B
:10563000982F9970913031F0E1FC06C0E0FE06C071
:1056400090E205C09DE203C09BE201C090E0EE2D18
:10565000E07183FF3CC0911102C083E001C084E08F
:10566000811718F4212F281B01C020E0E1110BC085
:10567000F601822F30E2882319F031938150FBCF5D
:10568000C20ED11C20E0992329F0D6019C93F6018B
:1056900031966F01C6010396E2FE0AC03EE4D601D0
:1056A0003C9341E411964C93119712963C9306C09B
:1056B0003EE6F601308341E641833283FC01322F1E
:1056C00040E2332309F442C041933150FACF82FFC4
:1056D00044C0911102C083E001C084E0811718F436
:1056E000212F281B01C020E0E1110BC0F601822F01
:1056F00030E2882319F031938150FBCFC20ED11CC8
:1057000020E0992329F0D6019C93F60131966F0190
:10571000C6010396E2FE0BC039E4D6013C933EE499
:1057200011963C93119736E412963C9307C039E6E4
:10573000F60130833EE6318336E63283FC01322FB8
:1057400040E2332319F041933150FBCFFC01E20FCB
:10575000F11D10828EEF9FEFB7C0F1E0911101C0F3
:10576000F0E06F2F70E01416150624F49A012F5FF5
:105770003F4F02C021E030E0260F371FBB2029F049
:105780006B2D70E06F5F7F4F02C060E070E0260F0E
:10579000371F612F70E0261737071CF4121B212FCB
:1057A00001C020E03E2D387159F4D601322F60E25D
:1057B000332319F06D933150FBCFC20ED11C20E082
:1057C000FF2331F0D6019C93B6016F5F7F4F6B01D1
:1057D000E1110BC0F601922F30E3992319F03193B8
:1057E0009150FBCFC20ED11C20E09F2D940F3A8127
:1057F000782F7071A72E84FF03C0313309F49150C4
:10580000191624F4993018F098E001C091E0E42FC3
:10581000852F57FF02C0E0E080E06E2F782FE0E098
:10582000F0E0AEE29A2E3A01691A71082A01461A8E
:10583000570A0B2D10E01195019511096F3F8FEF5D
:10584000780729F4D6019C92C60101966C0146178F
:10585000570784F0661677066CF47F01E40CF51C9C
:10586000A1E0B0E0AC0FBD1FEA0EFB1ED701119600
:10587000BC9002C090E3B92E615071093196C60107
:1058800001967C016017710724F0D601BC926C016F
:10589000D5CF6417750741F4363320F4353321F43E
:1058A000A11002C081E3B82EF601B082F701822F69
:1058B00090E2882319F091938150FBCFF701E20F1A
:1058C000F11D108280E090E029960FB6F894DEBFBB
:1058D0000FBECDBFDF91CF911F910F91FF90EF9041
:1058E000DF90CF90BF90AF909F907F906F905F9030
:1058F0004F900895A0E0B0E0E0E8FCE20C94BB25F6
:10590000EC017B016115710519F0DB018D939C930E
:105910008E010F5F1F4F7880872D90E00E948128B5
:10592000892B11F0E801F4CFBDE27B1205C00F5FB7
:105930001F4F7980C1E008C0EBE27E1204C08E01E7
:105940000E5F1F4F7980C0E06801F1E0CF1AD108E7
:1059500043E050E066ED71E0C6010E94B22E892B53
:10596000F1F4680122E0C20ED11C45E050E061ED87
:1059700071E0C6010E94B22E892B21F4680187E0F4
:10598000C80ED11CE114F10419F0D701CD92DC92BC
:10599000C111FFC060E070E080E89FE703C143E011
:1059A00050E06EEC71E0C6010E94B22E892B51F4DA
:1059B000E114F10409F4F2C00E5F1F4FF7011183E7
:1059C0000083ECC0680160E070E0CB0100E010E013
:1059D000F601D0EDD70DDA3058F52C2F2260622E6B
:1059E0002C2F2870C2FF05C0211128C00F5F1F4F48
:1059F00025C0222311F001501109A5E0B0E09B0160
:105A0000AC010E94AB244B015C01880C991CAA1CC0
:105A1000BB1CC501B4016D0F711D811D911D68393D
:105A2000A9E97A078A07A9E19A0740F0C66005C08C
:105A3000DE3F51F4C3FD44C0C8606C2EBFEFCB1AEB
:105A4000DB0A7080C62DC4CF2D2F2F7D2531C1F5E7
:105A500040814D3211F4C06106C04B3221F03196C5
:105A600021E030E006C03296D60111964C9122E03A
:105A700030E0A0EDA40FAA3018F0E21BF30B20C019
:105A800040E050E04038BCE05B075CF49A01220F34
:105A9000331F220F331F420F531F440F551F4A0F4E
:105AA000511D3196DF0111972C91A0EDA20FAA3064
:105AB00048F3C4FF03C0519541955109040F151FC8
:105AC000C1FF07C0E114F10421F03197D701ED9334
:105AD000FC930E94C922C370C33019F06B017C0192
